{
    "_format": "hh-sol-artifact-1",
    "contractName": "JustFriends",
    "sourceName": "contracts/JustFriends.sol",
    "abi": [
        {
            "inputs": [
                {
                    "internalType": "address",
                    "name": "_protocolFeeDestination",
                    "type": "address"
                },
                {
                    "internalType": "uint8",
                    "name": "_protocolFeePercentBase",
                    "type": "uint8"
                },
                {
                    "internalType": "uint8",
                    "name": "_creatorFeePercentBase",
                    "type": "uint8"
                },
                {
                    "internalType": "address",
                    "name": "_contentAccessContract",
                    "type": "address"
                }
            ],
            "stateMutability": "nonpayable",
            "type": "constructor"
        },
        {
            "inputs": [
                {
                    "internalType": "address",
                    "name": "walletAddress",
                    "type": "address"
                },
                {
                    "internalType": "bytes32",
                    "name": "contentHash",
                    "type": "bytes32"
                }
            ],
            "name": "DuplicateVoting",
            "type": "error"
        },
        {
            "inputs": [
                {
                    "internalType": "address",
                    "name": "walletAddress",
                    "type": "address"
                }
            ],
            "name": "ExistedCreator",
            "type": "error"
        },
        {
            "inputs": [],
            "name": "FailedFeeTransfer",
            "type": "error"
        },
        {
            "inputs": [
                {
                    "internalType": "address",
                    "name": "walletAddress",
                    "type": "address"
                },
                {
                    "internalType": "bytes32",
                    "name": "contentHash",
                    "type": "bytes32"
                }
            ],
            "name": "FreeContentExchange",
            "type": "error"
        },
        {
            "inputs": [
                {
                    "internalType": "address",
                    "name": "walletAddress",
                    "type": "address"
                },
                {
                    "internalType": "bytes32",
                    "name": "contentHash",
                    "type": "bytes32"
                },
                {
                    "internalType": "uint256",
                    "name": "amount",
                    "type": "uint256"
                }
            ],
            "name": "InsufficientAccess",
            "type": "error"
        },
        {
            "inputs": [
                {
                    "internalType": "address",
                    "name": "walletAddress",
                    "type": "address"
                },
                {
                    "internalType": "bytes32",
                    "name": "contentHash",
                    "type": "bytes32"
                },
                {
                    "internalType": "uint256",
                    "name": "amount",
                    "type": "uint256"
                }
            ],
            "name": "InsufficientPayment",
            "type": "error"
        },
        {
            "inputs": [
                {
                    "internalType": "bytes32",
                    "name": "contentHash",
                    "type": "bytes32"
                }
            ],
            "name": "InvalidContent",
            "type": "error"
        },
        {
            "inputs": [
                {
                    "internalType": "address",
                    "name": "walletAddress",
                    "type": "address"
                }
            ],
            "name": "InvalidCreator",
            "type": "error"
        },
        {
            "inputs": [
                {
                    "internalType": "address",
                    "name": "walletAddress",
                    "type": "address"
                },
                {
                    "internalType": "bytes32",
                    "name": "contentHash",
                    "type": "bytes32"
                }
            ],
            "name": "InvalidFirstPurchase",
            "type": "error"
        },
        {
            "inputs": [
                {
                    "internalType": "address",
                    "name": "walletAddress",
                    "type": "address"
                },
                {
                    "internalType": "bytes32",
                    "name": "contentHash",
                    "type": "bytes32"
                }
            ],
            "name": "InvalidLastSell",
            "type": "error"
        },
        {
            "inputs": [
                {
                    "internalType": "address",
                    "name": "walletAddress",
                    "type": "address"
                },
                {
                    "internalType": "bytes32",
                    "name": "contentHash",
                    "type": "bytes32"
                }
            ],
            "name": "InvalidVoting",
            "type": "error"
        },
        {
            "inputs": [
                {
                    "internalType": "address",
                    "name": "owner",
                    "type": "address"
                }
            ],
            "name": "OwnableInvalidOwner",
            "type": "error"
        },
        {
            "inputs": [
                {
                    "internalType": "address",
                    "name": "account",
                    "type": "address"
                }
            ],
            "name": "OwnableUnauthorizedAccount",
            "type": "error"
        },
        {
            "inputs": [
                {
                    "internalType": "address",
                    "name": "walletAddress",
                    "type": "address"
                },
                {
                    "internalType": "bytes32",
                    "name": "contentHash",
                    "type": "bytes32"
                }
            ],
            "name": "PaidContentVoting",
            "type": "error"
        },
        {
            "anonymous": false,
            "inputs": [
                {
                    "indexed": true,
                    "internalType": "bytes32",
                    "name": "hash",
                    "type": "bytes32"
                },
                {
                    "indexed": true,
                    "internalType": "address",
                    "name": "buyer",
                    "type": "address"
                },
                {
                    "indexed": false,
                    "internalType": "uint256",
                    "name": "amount",
                    "type": "uint256"
                },
                {
                    "indexed": false,
                    "internalType": "uint256",
                    "name": "totalPrice",
                    "type": "uint256"
                }
            ],
            "name": "AccessPurchased",
            "type": "event"
        },
        {
            "anonymous": false,
            "inputs": [
                {
                    "indexed": true,
                    "internalType": "bytes32",
                    "name": "hash",
                    "type": "bytes32"
                },
                {
                    "indexed": true,
                    "internalType": "address",
                    "name": "seller",
                    "type": "address"
                },
                {
                    "indexed": false,
                    "internalType": "uint256",
                    "name": "amount",
                    "type": "uint256"
                },
                {
                    "indexed": false,
                    "internalType": "uint256",
                    "name": "totalPrice",
                    "type": "uint256"
                }
            ],
            "name": "AccessSold",
            "type": "event"
        },
        {
            "anonymous": false,
            "inputs": [
                {
                    "indexed": true,
                    "internalType": "bytes32",
                    "name": "hash",
                    "type": "bytes32"
                },
                {
                    "indexed": true,
                    "internalType": "address",
                    "name": "creator",
                    "type": "address"
                },
                {
                    "indexed": false,
                    "internalType": "uint256",
                    "name": "startedPrice",
                    "type": "uint256"
                }
            ],
            "name": "ContentCreated",
            "type": "event"
        },
        {
            "anonymous": false,
            "inputs": [
                {
                    "indexed": true,
                    "internalType": "bytes32",
                    "name": "hash",
                    "type": "bytes32"
                },
                {
                    "indexed": true,
                    "internalType": "address",
                    "name": "account",
                    "type": "address"
                }
            ],
            "name": "Downvoted",
            "type": "event"
        },
        {
            "anonymous": false,
            "inputs": [
                {
                    "indexed": true,
                    "internalType": "address",
                    "name": "previousOwner",
                    "type": "address"
                },
                {
                    "indexed": true,
                    "internalType": "address",
                    "name": "newOwner",
                    "type": "address"
                }
            ],
            "name": "OwnershipTransferred",
            "type": "event"
        },
        {
            "anonymous": false,
            "inputs": [
                {
                    "indexed": true,
                    "internalType": "bytes32",
                    "name": "hash",
                    "type": "bytes32"
                },
                {
                    "indexed": true,
                    "internalType": "address",
                    "name": "account",
                    "type": "address"
                }
            ],
            "name": "Upvoted",
            "type": "event"
        },
        {
            "inputs": [
                {
                    "internalType": "bytes32",
                    "name": "_contentHash",
                    "type": "bytes32"
                },
                {
                    "internalType": "uint256",
                    "name": "_amount",
                    "type": "uint256"
                }
            ],
            "name": "buyContentAccess",
            "outputs": [],
            "stateMutability": "payable",
            "type": "function"
        },
        {
            "inputs": [],
            "name": "contentAccessContract",
            "outputs": [
                {
                    "internalType": "address",
                    "name": "",
                    "type": "address"
                }
            ],
            "stateMutability": "view",
            "type": "function"
        },
        {
            "inputs": [
                {
                    "internalType": "bytes32",
                    "name": "",
                    "type": "bytes32"
                }
            ],
            "name": "contentsList",
            "outputs": [
                {
                    "internalType": "bytes32",
                    "name": "contentHash",
                    "type": "bytes32"
                },
                {
                    "internalType": "uint256",
                    "name": "accessTokenId",
                    "type": "uint256"
                },
                {
                    "internalType": "address",
                    "name": "creator",
                    "type": "address"
                },
                {
                    "internalType": "uint256",
                    "name": "startedPrice",
                    "type": "uint256"
                },
                {
                    "internalType": "uint256",
                    "name": "totalUpvote",
                    "type": "uint256"
                },
                {
                    "internalType": "uint256",
                    "name": "totalDownvote",
                    "type": "uint256"
                }
            ],
            "stateMutability": "view",
            "type": "function"
        },
        {
            "inputs": [
                {
                    "internalType": "bytes32",
                    "name": "",
                    "type": "bytes32"
                }
            ],
            "name": "contentsSupply",
            "outputs": [
                {
                    "internalType": "uint256",
                    "name": "",
                    "type": "uint256"
                }
            ],
            "stateMutability": "view",
            "type": "function"
        },
        {
            "inputs": [],
            "name": "creatorFeePercentBase",
            "outputs": [
                {
                    "internalType": "uint8",
                    "name": "",
                    "type": "uint8"
                }
            ],
            "stateMutability": "view",
            "type": "function"
        },
        {
            "inputs": [
                {
                    "internalType": "address",
                    "name": "",
                    "type": "address"
                }
            ],
            "name": "creatorsList",
            "outputs": [
                {
                    "internalType": "address",
                    "name": "walletAddress",
                    "type": "address"
                },
                {
                    "internalType": "uint256",
                    "name": "totalContent",
                    "type": "uint256"
                },
                {
                    "internalType": "uint256",
                    "name": "baseCreditScore",
                    "type": "uint256"
                },
                {
                    "internalType": "uint256",
                    "name": "totalUpvote",
                    "type": "uint256"
                },
                {
                    "internalType": "uint256",
                    "name": "totalDownvote",
                    "type": "uint256"
                }
            ],
            "stateMutability": "view",
            "type": "function"
        },
        {
            "inputs": [
                {
                    "internalType": "bytes32",
                    "name": "_contentHash",
                    "type": "bytes32"
                }
            ],
            "name": "getContentInfo",
            "outputs": [
                {
                    "internalType": "bytes32",
                    "name": "",
                    "type": "bytes32"
                },
                {
                    "internalType": "uint256",
                    "name": "",
                    "type": "uint256"
                },
                {
                    "internalType": "address",
                    "name": "",
                    "type": "address"
                }
            ],
            "stateMutability": "view",
            "type": "function"
        },
        {
            "inputs": [
                {
                    "internalType": "uint256",
                    "name": "_supply",
                    "type": "uint256"
                },
                {
                    "internalType": "uint256",
                    "name": "_amount",
                    "type": "uint256"
                }
            ],
            "name": "getContentPrice",
            "outputs": [
                {
                    "internalType": "uint256",
                    "name": "",
                    "type": "uint256"
                }
            ],
            "stateMutability": "pure",
            "type": "function"
        },
        {
            "inputs": [
                {
                    "internalType": "address",
                    "name": "_walletAddress",
                    "type": "address"
                }
            ],
            "name": "getCreatorInfo",
            "outputs": [
                {
                    "internalType": "address",
                    "name": "",
                    "type": "address"
                },
                {
                    "internalType": "uint256",
                    "name": "",
                    "type": "uint256"
                },
                {
                    "internalType": "uint256",
                    "name": "",
                    "type": "uint256"
                },
                {
                    "internalType": "uint256",
                    "name": "",
                    "type": "uint256"
                },
                {
                    "internalType": "uint256",
                    "name": "",
                    "type": "uint256"
                }
            ],
            "stateMutability": "view",
            "type": "function"
        },
        {
            "inputs": [],
            "name": "owner",
            "outputs": [
                {
                    "internalType": "address",
                    "name": "",
                    "type": "address"
                }
            ],
            "stateMutability": "view",
            "type": "function"
        },
        {
            "inputs": [
                {
                    "internalType": "bytes32",
                    "name": "_contentHash",
                    "type": "bytes32"
                },
                {
                    "internalType": "uint256",
                    "name": "_startedPrice",
                    "type": "uint256"
                }
            ],
            "name": "postContent",
            "outputs": [],
            "stateMutability": "nonpayable",
            "type": "function"
        },
        {
            "inputs": [],
            "name": "protocolFeeDestination",
            "outputs": [
                {
                    "internalType": "address",
                    "name": "",
                    "type": "address"
                }
            ],
            "stateMutability": "view",
            "type": "function"
        },
        {
            "inputs": [],
            "name": "protocolFeePercentBase",
            "outputs": [
                {
                    "internalType": "uint8",
                    "name": "",
                    "type": "uint8"
                }
            ],
            "stateMutability": "view",
            "type": "function"
        },
        {
            "inputs": [
                {
                    "internalType": "uint256",
                    "name": "_creditScoreBase",
                    "type": "uint256"
                }
            ],
            "name": "register",
            "outputs": [],
            "stateMutability": "nonpayable",
            "type": "function"
        },
        {
            "inputs": [],
            "name": "renounceOwnership",
            "outputs": [],
            "stateMutability": "nonpayable",
            "type": "function"
        },
        {
            "inputs": [
                {
                    "internalType": "bytes32",
                    "name": "_contentHash",
                    "type": "bytes32"
                },
                {
                    "internalType": "uint256",
                    "name": "_amount",
                    "type": "uint256"
                }
            ],
            "name": "sellContentAccess",
            "outputs": [],
            "stateMutability": "nonpayable",
            "type": "function"
        },
        {
            "inputs": [
                {
                    "internalType": "uint8",
                    "name": "_newCreatorFeePercentBase",
                    "type": "uint8"
                }
            ],
            "name": "setCreatorFeePercent",
            "outputs": [],
            "stateMutability": "nonpayable",
            "type": "function"
        },
        {
            "inputs": [
                {
                    "internalType": "address",
                    "name": "_newProtocolFeeDestination",
                    "type": "address"
                }
            ],
            "name": "setProtocolFeeDestination",
            "outputs": [],
            "stateMutability": "nonpayable",
            "type": "function"
        },
        {
            "inputs": [
                {
                    "internalType": "uint8",
                    "name": "_newProtocolFeePercentBase",
                    "type": "uint8"
                }
            ],
            "name": "setProtocolFeePercent",
            "outputs": [],
            "stateMutability": "nonpayable",
            "type": "function"
        },
        {
            "inputs": [
                {
                    "internalType": "address",
                    "name": "newOwner",
                    "type": "address"
                }
            ],
            "name": "transferOwnership",
            "outputs": [],
            "stateMutability": "nonpayable",
            "type": "function"
        },
        {
            "inputs": [
                {
                    "internalType": "bytes32",
                    "name": "_contentHash",
                    "type": "bytes32"
                },
                {
                    "internalType": "enum JustFriendsInterface.VoteType",
                    "name": "_voteType",
                    "type": "uint8"
                }
            ],
            "name": "vote",
            "outputs": [],
            "stateMutability": "nonpayable",
            "type": "function"
        }
    ],
    "bytecode": "0x608060405260006003553480156200001657600080fd5b5060405162001dd838038062001dd8833981016040819052620000399162000148565b33806200006057604051631e4fbdf760e01b81526000600482015260240160405180910390fd5b6200006b81620000c9565b50600180546001600160a01b039586166001600160a81b031990911617600160a01b60ff958616021760ff60a81b1916600160a81b9390941692909202929092179055600280546001600160a01b03191691909216179055620001a5565b600080546001600160a01b038381166001600160a01b0319831681178455604051919092169283917f8be0079c531659141344cd1fd0a4f28419497f9722a3daafe3b4186f6b6457e09190a35050565b80516001600160a01b03811681146200013157600080fd5b919050565b805160ff811681146200013157600080fd5b600080600080608085870312156200015f57600080fd5b6200016a8562000119565b93506200017a6020860162000136565b92506200018a6040860162000136565b91506200019a6060860162000119565b905092959194509250565b611c2380620001b56000396000f3fe60806040526004361061016a5760003560e01c8063bfa5b07e116100cb578063de11368c1161007f578063f207564e11610059578063f207564e14610645578063f2fde38b14610665578063f82a2c491461068557600080fd5b8063de11368c146105d2578063ec17d627146105f2578063ec4d925b1461062557600080fd5b8063c9a28cb9116100b0578063c9a28cb91461054e578063cb6029b21461056e578063ccdb635f1461058e57600080fd5b8063bfa5b07e146104da578063bfcfb7a71461053b57600080fd5b8063715018a6116101225780638da5cb5b116101075780638da5cb5b146103c457806397d5c1ac146103ef578063a10786b0146104ba57600080fd5b8063715018a6146103005780637688a2601461031557600080fd5b80631cc11e62116101535780631cc11e62146101f457806338e84696146102165780634ce7957c146102d357600080fd5b8063010ee15d1461016f57806307bd92b7146101a2575b600080fd5b34801561017b57600080fd5b5061018f61018a3660046119f7565b6106b2565b6040519081526020015b60405180910390f35b3480156101ae57600080fd5b506002546101cf9073ffffffffffffffffffffffffffffffffffffffff1681565b60405173ffffffffffffffffffffffffffffffffffffffff9091168152602001610199565b34801561020057600080fd5b5061021461020f366004611a19565b6107d5565b005b34801561022257600080fd5b506102a2610231366004611a43565b600081815260046020818152604092839020835160c08101855281548082526001830154938201849052600283015473ffffffffffffffffffffffffffffffffffffffff169582018690526003830154606083015293820154608082015260059091015460a0909101529093909250565b60408051938452602084019290925273ffffffffffffffffffffffffffffffffffffffff1690820152606001610199565b3480156102df57600080fd5b506001546101cf9073ffffffffffffffffffffffffffffffffffffffff1681565b34801561030c57600080fd5b50610214610829565b34801561032157600080fd5b5061037c610330366004611a43565b60046020819052600091825260409091208054600182015460028301546003840154948401546005909401549294919373ffffffffffffffffffffffffffffffffffffffff9091169286565b60408051968752602087019590955273ffffffffffffffffffffffffffffffffffffffff909316938501939093526060840152608083019190915260a082015260c001610199565b3480156103d057600080fd5b5060005473ffffffffffffffffffffffffffffffffffffffff166101cf565b3480156103fb57600080fd5b5061047b61040a366004611a5c565b73ffffffffffffffffffffffffffffffffffffffff908116600090815260066020908152604091829020825160a08101845281549094168085526001820154928501839052600282015493850184905260038201546060860181905260049092015460809095018590529491939091565b6040805173ffffffffffffffffffffffffffffffffffffffff90961686526020860194909452928401919091526060830152608082015260a001610199565b3480156104c657600080fd5b506102146104d5366004611a5c565b61083d565b3480156104e657600080fd5b5061047b6104f5366004611a5c565b6006602052600090815260409020805460018201546002830154600384015460049094015473ffffffffffffffffffffffffffffffffffffffff90931693919290919085565b6102146105493660046119f7565b61088c565b34801561055a57600080fd5b50610214610569366004611a92565b610d06565b34801561057a57600080fd5b506102146105893660046119f7565b611039565b34801561059a57600080fd5b506001546105c09074010000000000000000000000000000000000000000900460ff1681565b60405160ff9091168152602001610199565b3480156105de57600080fd5b506102146105ed3660046119f7565b611207565b3480156105fe57600080fd5b506001546105c0907501000000000000000000000000000000000000000000900460ff1681565b34801561063157600080fd5b50610214610640366004611a19565b611720565b34801561065157600080fd5b50610214610660366004611a43565b611775565b34801561067157600080fd5b50610214610680366004611a5c565b61186c565b34801561069157600080fd5b5061018f6106a0366004611a43565b60056020526000908152604090205481565b600080831561070d5760066106c8600186611af5565b6106d3906002611b08565b6106de906001611b1f565b856106ea600182611af5565b6106f49190611b08565b6106fe9190611b08565b6107089190611b32565b610710565b60005b90506000841580156107225750836001145b61079757600684610734600188611af5565b61073e9190611b1f565b610749906002611b08565b610754906001611b1f565b61075e8688611b1f565b8661076a60018a611af5565b6107749190611b1f565b61077e9190611b08565b6107889190611b08565b6107929190611b32565b61079a565b60005b905060006107a88383611af5565b90506127106107bf82670de0b6b3a7640000611b08565b6107c99190611b32565b93505050505b92915050565b6107dd6118d0565b6001805460ff90921674010000000000000000000000000000000000000000027fffffffffffffffffffffff00ffffffffffffffffffffffffffffffffffffffff909216919091179055565b6108316118d0565b61083b6000611923565b565b6108456118d0565b600180547fffffffffffffffffffffffff00000000000000000000000000000000000000001673ffffffffffffffffffffffffffffffffffffffff92909216919091179055565b600082815260046020818152604092839020835160c08101855281548152600182015492810192909252600281015473ffffffffffffffffffffffffffffffffffffffff169382018490526003810154606083015291820154608082015260059091015460a082015290610934576040517f69d71ce5000000000000000000000000000000000000000000000000000000008152600481018490526024015b60405180910390fd5b806060015160000361097b576040517f18c1febf0000000000000000000000000000000000000000000000000000000081523360048201526024810184905260440161092b565b600083815260056020526040902054801580156109c85750816040015173ffffffffffffffffffffffffffffffffffffffff163373ffffffffffffffffffffffffffffffffffffffff1614155b15610a08576040517fdb5a4fd40000000000000000000000000000000000000000000000000000000081523360048201526024810185905260440161092b565b60408083015173ffffffffffffffffffffffffffffffffffffffff908116600090815260066020908152838220845160a0810186528154909416845260018101549184019190915260028101549383019390935260038301546060830152600490920154608082015290610a7c83866106b2565b9050600080610a8a83611998565b909250905080610a9a8385611b1f565b610aa49190611b1f565b341015610aec576040517fd06678690000000000000000000000000000000000000000000000000000000081523360048201526024810189905234604482015260640161092b565b60008881526005602052604081208054899290610b0a908490611b1f565b909155505060015460405160009173ffffffffffffffffffffffffffffffffffffffff169083908381818185875af1925050503d8060008114610b69576040519150601f19603f3d011682016040523d82523d6000602084013e610b6e565b606091505b505090506000856000015173ffffffffffffffffffffffffffffffffffffffff168460405160006040518083038185875af1925050503d8060008114610bd0576040519150601f19603f3d011682016040523d82523d6000602084013e610bd5565b606091505b50509050811580610be4575080155b15610c1b576040517f24a8ac1300000000000000000000000000000000000000000000000000000000815260040160405180910390fd5b6002546040517fb498fb02000000000000000000000000000000000000000000000000000000008152336004820152602481018c9052604481018b9052608060648201526000608482015273ffffffffffffffffffffffffffffffffffffffff90911690819063b498fb029060a401600060405180830381600087803b158015610ca457600080fd5b505af1158015610cb8573d6000803e3d6000fd5b5050604080518d8152602081018a90523393508e92507f8fccfe372405954c8e1283918d67d52c901db69d2458fb3588c9491d6da7b093910160405180910390a35050505050505050505050565b600082815260046020818152604092839020835160c08101855281548152600182015492810192909252600281015473ffffffffffffffffffffffffffffffffffffffff169382019390935260038301546060820181905291830154608082015260059092015460a083015215610db2576040517f51e6df220000000000000000000000000000000000000000000000000000000081523360048201526024810184905260440161092b565b6000826002811115610dc657610dc6611b6d565b03610e06576040517f8a0ffdbe0000000000000000000000000000000000000000000000000000000081523360048201526024810184905260440161092b565b60408082015173ffffffffffffffffffffffffffffffffffffffff908116600090815260066020908152838220845160a081018652815490941684526001810154848301526002810154848601526003810154606085015260040154608084015233825260078152838220878352905291822054909160ff90911690816002811115610e9457610e94611b6d565b14158015610ec35750836002811115610eaf57610eaf611b6d565b816002811115610ec157610ec1611b6d565b145b15610f03576040517fcd7f7b950000000000000000000000000000000000000000000000000000000081523360048201526024810186905260440161092b565b6001846002811115610f1757610f17611b6d565b03610f7c5760018360a001818151610f2f9190611b1f565b90525060808201805160019190610f47908390611b1f565b905250604051339086907fb1f8a8c3b9c62276b24c9b40926b671752062ba0733a502eee66b97cc06aad7f90600090a3610fd8565b600183608001818151610f8f9190611b1f565b90525060608201805160019190610fa7908390611b1f565b905250604051339086907fd8309d6f87417720a01d0343ff397d8014a9a84366935934f8d9fa3c011f414790600090a35b336000908152600760209081526040808320888452909152902080548591907fffffffffffffffffffffffffffffffffffffffffffffffffffffffffffffff0016600183600281111561102d5761102d611b6d565b02179055505050505050565b3360009081526006602052604090205473ffffffffffffffffffffffffffffffffffffffff16611097576040517ffec99a9d00000000000000000000000000000000000000000000000000000000815233600482015260240161092b565b6040805160c081018252838152600380546020808401918252338486019081526060850187815260006080870181815260a088018281528b835260048087528a84208a5181559751600189015594516002880180547fffffffffffffffffffffffff00000000000000000000000000000000000000001673ffffffffffffffffffffffffffffffffffffffff9092169190911790559251868801555192850192909255516005938401559190529283208390558054919261115783611b9c565b909155505033600090815260066020908152604091829020825160a081018452815473ffffffffffffffffffffffffffffffffffffffff1681526001820154928101838152600283015494820194909452600382015460608201526004909101546080820152916111c782611b9c565b905250604051838152339085907fd37a590ef3ba46087e58089ce48f31e4d9984dfbc9f16f956693aee6297f3e1e9060200160405180910390a350505050565b600082815260046020818152604092839020835160c08101855281548152600182015492810192909252600281015473ffffffffffffffffffffffffffffffffffffffff169382018490526003810154606083015291820154608082015260059091015460a0820152906112aa576040517f69d71ce50000000000000000000000000000000000000000000000000000000081526004810184905260240161092b565b80606001516000036112f1576040517f18c1febf0000000000000000000000000000000000000000000000000000000081523360048201526024810184905260440161092b565b600083815260056020526040902054828111611342576040517fb958565e0000000000000000000000000000000000000000000000000000000081523360048201526024810185905260440161092b565b60025460208301516040517efdd58e000000000000000000000000000000000000000000000000000000008152336004820152602481019190915273ffffffffffffffffffffffffffffffffffffffff909116908490829062fdd58e90604401602060405180830381865afa1580156113bf573d6000803e3d6000fd5b505050506040513d601f19601f820116820180604052508101906113e39190611bd4565b1161142a576040517f380dfc42000000000000000000000000000000000000000000000000000000008152336004820152602481018690526044810185905260640161092b565b60408084015173ffffffffffffffffffffffffffffffffffffffff908116600090815260066020908152838220845160a081018652815490941684526001810154918401919091526002810154938301939093526003830154606083015260049092015460808201529061149e84876106b2565b90506000806114ac83611998565b60008b815260056020526040812080549395509193508a926114cf908490611af5565b909155505060015460405160009173ffffffffffffffffffffffffffffffffffffffff169083908381818185875af1925050503d806000811461152e576040519150601f19603f3d011682016040523d82523d6000602084013e611533565b606091505b505090506000856000015173ffffffffffffffffffffffffffffffffffffffff168460405160006040518083038185875af1925050503d8060008114611595576040519150601f19603f3d011682016040523d82523d6000602084013e61159a565b606091505b509091506000905033846115ae8789611af5565b6115b89190611af5565b604051600081818185875af1925050503d80600081146115f4576040519150601f19603f3d011682016040523d82523d6000602084013e6115f9565b606091505b50509050821580611608575081155b80611611575080155b15611648576040517f24a8ac1300000000000000000000000000000000000000000000000000000000815260040160405180910390fd5b6040517fa7798c54000000000000000000000000000000000000000000000000000000008152336004820152602481018d9052604481018c905273ffffffffffffffffffffffffffffffffffffffff89169063a7798c5490606401600060405180830381600087803b1580156116bd57600080fd5b505af11580156116d1573d6000803e3d6000fd5b5050604080518e8152602081018a90523393508f92507fb78a347f67e60e77f52aa2a212347075651ba0dbe890c6ca751c2aab5cf45d3d910160405180910390a3505050505050505050505050565b6117286118d0565b6001805460ff9092167501000000000000000000000000000000000000000000027fffffffffffffffffffff00ffffffffffffffffffffffffffffffffffffffffff909216919091179055565b3360009081526006602052604090205473ffffffffffffffffffffffffffffffffffffffff16156117d4576040517f64a3462b00000000000000000000000000000000000000000000000000000000815233600482015260240161092b565b6040805160a08101825233808252600060208084018281528486019687526060850183815260808601848152948452600690925294909120925183547fffffffffffffffffffffffff00000000000000000000000000000000000000001673ffffffffffffffffffffffffffffffffffffffff9091161783559251600183015592516002820155905160038201559051600490910155565b6118746118d0565b73ffffffffffffffffffffffffffffffffffffffff81166118c4576040517f1e4fbdf70000000000000000000000000000000000000000000000000000000081526000600482015260240161092b565b6118cd81611923565b50565b60005473ffffffffffffffffffffffffffffffffffffffff16331461083b576040517f118cdaa700000000000000000000000000000000000000000000000000000000815233600482015260240161092b565b6000805473ffffffffffffffffffffffffffffffffffffffff8381167fffffffffffffffffffffffff0000000000000000000000000000000000000000831681178455604051919092169283917f8be0079c531659141344cd1fd0a4f28419497f9722a3daafe3b4186f6b6457e09190a35050565b60015460009081906119c6907501000000000000000000000000000000000000000000900460ff1684611b08565b6001546119ee9074010000000000000000000000000000000000000000900460ff1685611b08565b91509150915091565b60008060408385031215611a0a57600080fd5b50508035926020909101359150565b600060208284031215611a2b57600080fd5b813560ff81168114611a3c57600080fd5b9392505050565b600060208284031215611a5557600080fd5b5035919050565b600060208284031215611a6e57600080fd5b813573ffffffffffffffffffffffffffffffffffffffff81168114611a3c57600080fd5b60008060408385031215611aa557600080fd5b82359150602083013560038110611abb57600080fd5b809150509250929050565b7f4e487b7100000000000000000000000000000000000000000000000000000000600052601160045260246000fd5b818103818111156107cf576107cf611ac6565b80820281158282048414176107cf576107cf611ac6565b808201808211156107cf576107cf611ac6565b600082611b68577f4e487b7100000000000000000000000000000000000000000000000000000000600052601260045260246000fd5b500490565b7f4e487b7100000000000000000000000000000000000000000000000000000000600052602160045260246000fd5b60007fffffffffffffffffffffffffffffffffffffffffffffffffffffffffffffffff8203611bcd57611bcd611ac6565b5060010190565b600060208284031215611be657600080fd5b505191905056fea2646970667358221220c6c6471a7626091e8bfea3234f57ca987a954f7b47078b0f5add1b3c36b4a5e864736f6c63430008140033",
    "linkReferences": {},
    "deployedLinkReferences": {}
}